:100000000C9434000C943E000C943E000C943E0082
:100010000C943E000C943E000C943E000C943E0068
:100020000C943E000C943E000C943E000C943E0058
:100030000C943E000C943E000C943E000C943E0048
:100040000C943E000C943E000C943E000C943E0038
:100050000C943E000C943E000C943E000C943E0028
:100060000C943E000C943E0011241FBECFEFD8E04C
:10007000DEBFCDBF0E9440000C945E000C940000D7
:10008000259A81E680937C0087E880937A008091AE
:100090007A00806480937A0080917A0084FFFCCF9C
:1000A0008091790087FF08C02D9A8FE39CE9019722
:1000B000F1F700C00000EBCF2D98F7CFF894FFCFF9
:00000001FF
